:100000000C9434000C943E000C944C000C943E0074
:100010000C943E000C943E000C943E000C943E0068
:100020000C943E000C943E000C943E000C943E0058
:100030000C943E000C943E000C943E000C943E0048
:100040000C943E000C943E000C943E000C943E0038
:100050000C943E000C943E000C943E000C943E0028
:100060000C943E000C943E0011241FBECFEFD8E04C
:10007000DEBFCDBF0E9465000C947C000C94000094
:1000800084E38AB980E28BB980E88FBF84E08093F3
:10009000690082E08DBB08951F920F920FB60F92F8
:1000A00011248F939F938FB71FBE9BB184E2892742
:1000B0008BB98CB31CBA8FB780688FBF9F918F911B
:1000C0000F900FBE0F901F9018950E9440005C9AF1
:1000D0002FEF83ED90E3215080409040E1F700C086
:1000E00000005C982FEF83ED90E32150804090401A
:0C00F000E1F700C00000EBCFF894FFCF58
:00000001FF
