:100000000C9434000C943E000C943E000C943E0082
:100010000C943E000C943E000C943E000C943E0068
:100020000C943E000C943E000C943E000C943E0058
:100030000C943E000C943E000C943E000C943E0048
:100040000C943E000C943E000C943E000C943E0038
:100050000C943E000C943E000C943E000C943E0028
:100060000C943E000C943E0011241FBECFEFD8E04C
:10007000DEBFCDBF0E9444000C945B000C940000D6
:1000800080E284B915B808950E9440002D9A2FEFA0
:1000900083ED90E3215080409040E1F700C00000E4
:1000A0002D982FEF8EE994E2215080409040E1F7A7
:0A00B00000C00000EBCFF894FFCF72
:00000001FF
