:100000000C9434000C9446000C9446000C9446006A
:100010000C9446000C9446000C9446000C94460048
:100020000C9446000C9446000C9446000C94460038
:100030000C9446000C945C000C9446000C94460012
:100040000C9446000C9446000C9446000C94460018
:100050000C9446000C9446000C9446000C94460008
:100060000C9446000C94460011241FBECFEFD8E03C
:10007000DEBFCDBF21E0A0E0B1E001C01D92A23003
:10008000B207E1F70E9490000C9493000C940000DA
:1000900080E18AB91BB880E88FBF1092800085E0AC
:1000A0008093810081E080936F0086EF92EC9093C3
:1000B00085008093840008951F920F920FB60F92CF
:1000C00011248F939F938FB71FBE9BB184E0892724
:1000D0008BB986B316BA8091000180FD03C086EF0C
:1000E00092EC02C080E69AEE9093850080938400A3
:1000F00080910001909101010196909301018093FC
:10010000000180916F00816080936F008FB78068DD
:100110008FBF9F918F910F900FBE0F901F901895DA
:0A0120000E944800FFCFF894FFCFC3
:00000001FF
