:100000000C9434000C9451000C9451000C94510049
:100010000C9451000C9451000C9451000C9451001C
:100020000C9451000C9451000C9451000C9451000C
:100030000C9451000C9451000C9451000C945100FC
:100040000C9451000C9451000C9451000C945100EC
:100050000C9451000C9451000C9451000C945100DC
:100060000C9451000C94510011241FBECFEFD8E026
:10007000DEBFCDBF11E0A0E0B1E0E6E4F2E002C0F7
:1000800005900D92A433B107D9F711E0A4E3B1E0D4
:1000900001C01D92AA33B107E1F70E948B000C94B6
:1000A00021010C94000080E18AB91BB808959C01DD
:1000B00040E050E060E472E48FE090E00E94AF0026
:1000C000215030402093C400232F330F330B209353
:1000D000C500E1ECF0E0808188618083E2ECF0E033
:1000E00080818660808385E291E0909337018093E0
:1000F000360108951F93182F8A3019F48DE00E945D
:100100007A008091C00085FFFCCF1093C60080E08C
:1001100090E01F910895CF93DF9380E18AB91BB8D7
:1001200080E895E20E945700C0E9D1E05A9A80E049
:1001300091E00E94EC0080E197E2FE013197F1F737
:100140000197D9F75A9881E191E00E94EC008CE484
:100150009DE1FE013197F1F70197D9F7E7CF97FBC2
:10016000092E05260ED057FD04D014D00AD0001C4D
:1001700038F450954095309521953F4F4F4F5F4F44
:100180000895F6F790958095709561957F4F8F4F04
:100190009F4F0895A1E21A2EAA1BBB1BFD010DC0A3
:1001A000AA1FBB1FEE1FFF1FA217B307E407F50727
:1001B00020F0A21BB30BE40BF50B661F771F881F03
:1001C000991F1A9469F760957095809590959B0199
:1001D000AC01BD01CF0108950F931F93CF93DF931F
:1001E0008C01E0913601F0913701838181FF21C0BC
:1001F000C0E0D0E00DC0E0913601F09137012085DC
:100200003185BF01F9010995892B11F0CFEFDFEF9F
:10021000F80181918F01882371F7E0913601F09107
:100220003701208531858AE0BF01F9010995892BC5
:1002300011F0CFEFDFEFCE01DF91CF911F910F9142
:060240000895F894FFCFC1
:1002460020414C4C554D4552204C452046455520A5
:1002560000204554204F4E20455445494E532054C6
:100266004F5554200000000002000000007A0000F4
:040276000000000084
:00000001FF
