:100000000C9434000C943E000C943E000C943E0082
:100010000C943E000C943E000C943E000C943E0068
:100020000C943E000C943E000C943E000C943E0058
:100030000C943E000C943E000C943E000C943E0048
:100040000C943E000C943E000C943E000C943E0038
:100050000C943E000C943E000C943E000C943E0028
:100060000C943E000C943E0011241FBECFEFD8E04C
:10007000DEBFCDBF0E9477000C94B9000C94000045
:100080009C0140E050E060E472E48FE090E00E9468
:100090007C0021503040832F992787FD9A958093CB
:1000A000C5002093C40088E18093C1008EE0809356
:1000B000C20008955C9A84EC99E020E931E0F901EE
:1000C0003197F1F70197D9F75C9884EC99E020E932
:1000D00031E0F9013197F1F70197D9F7089580E7F9
:1000E0008AB91BB880E895E20E94400008950E94FA
:1000F0006F000E945A00FDCF97FB092E05260ED0F7
:1001000057FD04D014D00AD0001C38F45095409507
:10011000309521953F4F4F4F5F4F0895F6F79095DB
:100120008095709561957F4F8F4F9F4F0895A1E205
:100130001A2EAA1BBB1BFD010DC0AA1FBB1FEE1F61
:10014000FF1FA217B307E407F50720F0A21BB30BAC
:10015000E40BF50B661F771F881F991F1A9469F728
:1001600060957095809590959B01AC01BD01CF0184
:060170000895F894FFCF92
:00000001FF
