:100000000C9461000C941E010C944B010C94730031
:100010000C9473000C9473000C9473000C94730094
:100020000C9473000C9484000C9473000C94730073
:100030000C9473000C9473000C9473000C94730074
:100040000C9478010C9473000C9473000C9473005E
:100050000C9473000C9473000C9473000C94730054
:100060000C9473000C94730000000000240027001F
:100070002A0000000000250028002B0000000000DE
:1000800023002600290004040404040404040202DA
:100090000202020203030303030301020408102007
:1000A0004080010204081020010204081020000012
:1000B0000007000201000003040600000000000029
:1000C000000011241FBECFEFD8E0DEBFCDBF11E08E
:1000D000A0E0B1E001C01D92A031B107E1F70E949C
:1000E000EC000C94CA020C9400008091000190E096
:1000F000882309F491E09093000108956091000134
:1001000085E00E94670208951F920F920FB60F922A
:1001100011242F933F934F935F936F937F938F930C
:100120009F93AF93BF93EF93FF93F8948091010156
:100130009091020101969093020180930101845FE6
:100140009140C1F4109202011092010184E00E94DA
:100150009A0260E0892B09F461E084E00E94670262
:1001600087B317BA8FEF8093B200809170008160DF
:10017000809370007894FF91EF91BF91AF919F9120
:100180008F917F916F915F914F913F912F910F9040
:100190000FBE0F901F90189584E061E00E94FB0154
:1001A00085E061E00E94FB0182E062E00E94FB01C9
:1001B00081E065E770E043E050E00E94FB00789446
:1001C0001092B00085E08093B10081E080937000D0
:1001D0008FEF8093B2000895CF93DF930E94C00108
:1001E0000E94CC00C0E0D0E00E947E002097E1F3A6
:1001F0000E940000F9CF823000F5E82FF0E0EE0F0A
:10020000FF1FED5FFE4F71836083882319F08130FB
:10021000A1F408C0809169008C7F842B80936900D1
:10022000E89A089580916900440F551F440F551FA7
:10023000837F842B80936900E99A08951F920F921F
:100240000FB60F9211242F933F934F935F936F93A9
:100250007F938F939F93AF93BF93EF93FF9380917F
:10026000030190910401892B29F0E0910301F091A1
:1002700004010995FF91EF91BF91AF919F918F91EB
:100280007F916F915F914F913F912F910F900FBE92
:100290000F901F9018951F920F920FB60F92112476
:1002A0002F933F934F935F936F937F938F939F937E
:1002B000AF93BF93EF93FF93809105019091060157
:1002C000892B29F0E0910501F09106010995FF9134
:1002D000EF91BF91AF919F918F917F916F915F91BE
:1002E0004F913F912F910F900FBE0F901F90189537
:1002F0001F920F920FB60F9211242F933F938F935B
:100300009F93AF93BF9380910B0190910C01A091AB
:100310000D01B0910E0130910F010196A11DB11D8B
:10032000232F2D5F2D3720F02D570196A11DB11DD4
:1003300020930F0180930B0190930C01A0930D016A
:10034000B0930E018091070190910801A0910901DD
:10035000B0910A010196A11DB11D809307019093F0
:100360000801A0930901B0930A01BF91AF919F9139
:100370008F913F912F910F900FBE0F901F90189566
:10038000789484B5826084BD84B5816084BD85B570
:10039000826085BD85B5816085BDEEE6F0E0808137
:1003A00081608083E1E8F0E0108280818260808358
:1003B000808181608083E0E8F0E0808181608083DB
:1003C000E1EBF0E0808184608083E0EBF0E080810D
:1003D00081608083EAE7F0E08081846080838081AF
:1003E0008260808380818160808380818068808357
:1003F0001092C1000895CF93DF93482F50E0CA01B7
:1004000086569F4FFC0134914A575F4FFA01849101
:10041000882369F190E0880F991FFC01E859FF4F8C
:10042000A591B491FC01EE58FF4FC591D49166237C
:1004300051F42FB7F8948C91932F909589238C9336
:10044000888189230BC0623061F42FB7F8948C91B6
:10045000932F909589238C938881832B88832FBF3A
:1004600006C09FB7F8948C91832B8C939FBFDF912C
:10047000CF910895833071F0843028F48130A1F059
:10048000823021F514C08630B1F08730D1F084304D
:10049000E9F404C0809180008F7703C080918000D0
:1004A0008F7D80938000089584B58F7702C084B5D6
:1004B0008F7D84BD08958091B0008F778093B000C8
:1004C00008958091B0008F7D8093B0000895FF92D1
:1004D0000F931F93F62E482F50E0CA0182559F4F6D
:1004E000FC012491CA0186569F4FFC0114914A5782
:1004F0005F4FFA0104910023C9F0222319F0822FE3
:100500000E943A02E02FF0E0EE0FFF1FEE58FF4F7F
:10051000A591B4919FB7F894FF2021F48C91109588
:10052000812302C08C91812B8C939FBF1F910F91CF
:10053000FF9008950F931F93482F50E0CA018255F2
:100540009F4FFC012491CA0186569F4FFC010491E4
:100550004A575F4FFA011491112319F420E030E05B
:1005600015C0222319F0822F0E943A02812F90E0B9
:10057000880F991F84589F4FFC01A591B4918C91CD
:1005800020E030E0802311F021E030E0C9011F912C
:080590000F910895F894FFCFCC
:00000001FF
