:100000000C9434000C943E000C944C000C943E0074
:100010000C943E000C943E000C943E000C943E0068
:100020000C943E000C943E000C943E000C943E0058
:100030000C943E000C943E000C943E000C943E0048
:100040000C943E000C943E000C943E000C943E0038
:100050000C943E000C943E000C943E000C943E0028
:100060000C943E000C943E0011241FBECFEFD8E04C
:10007000DEBFCDBF0E9465000C9483000C9400008D
:1000800084E38AB980E28BB980E88FBF84E08093F3
:10009000690082E08DBB08951F920F920FB60F92F8
:1000A00011248F939F938FB71FBE8BB194E2892742
:1000B0008BB98CB31CBA8FB780688FBF9F918F911B
:1000C0000F900FBE0F901F90189584E38AB980E2BD
:1000D0008BB980E88FBF84E08093690082E08DBB9C
:1000E00020E931E05C9A80E197E2F9013197F1F77C
:1000F0000197D9F75C9880E197E2F9013197F1F720
:0A0100000197D9F7EFCFF894FFCF75
:00000001FF
