:100000000C9434000C943E000C944B000C943E0075
:100010000C943E000C943E000C943E000C943E0068
:100020000C943E000C943E000C943E000C943E0058
:100030000C943E000C943E000C943E000C943E0048
:100040000C943E000C943E000C943E000C943E0038
:100050000C943E000C943E000C943E000C943E0028
:100060000C943E000C943E0011241FBECFEFD8E04C
:10007000DEBFCDBF0E9464000C946F000C940000A2
:1000800080E18AB91BB880E88FBF8CE0809369005B
:1000900082E08DBB08951F920F920FB60F9211242C
:1000A0008F939F938FB71FBE8BB194E089278BB935
:1000B0008CB31CBA8FB780688FBF9F918F910F90C0
:1000C0000FBE0F901F90189580E18AB91BB880E889
:1000D0008FBF8CE08093690082E08DBBFFCFF894E6
:0200E000FFCF50
:00000001FF
