:100000000C9434000C9451000C9451000C94510049
:100010000C9451000C9451000C9451000C9451001C
:100020000C9451000C9451000C9451000C9451000C
:100030000C9451000C9451000C9451000C945100FC
:100040000C9451000C9451000C9451000C945100EC
:100050000C9451000C9451000C9451000C945100DC
:100060000C9451000C94510011241FBECFEFD8E026
:10007000DEBFCDBF11E0A0E0B1E0ECE3F2E002C0F2
:1000800005900D92A433B107D9F721E0A4E3B1E0C4
:1000900001C01D92AA33B207E1F70E9488000C94B8
:1000A0001C010C940000CF93C82F8A3019F48DE006
:1000B0000E9453008091C00085FFFCCFC093C60012
:1000C00080E090E0CF91089580E18AB91BB808954F
:1000D0009C0140E050E060E472E48FE090E00E9418
:1000E000AB00215031092093C4003093C500E1ECEE
:1000F000F0E0808188618083E2ECF0E080818660BE
:10010000808380E091E090933701809336010895D9
:100110000E94640080E895E20E9468005A9A8EE08E
:1001200091E00E94EC002FEF83ED90E3215080409E
:100130009040E1F700C000005A988FE191E00E94E2
:10014000EC002FEF8EE994E2215080409040E1F7DF
:1001500000C00000E3CF052E97FB1EF400940E9420
:10016000C20057FD07D00E94CA0007FC03D04EF41E
:100170000C94C20050954095309521953F4F4F4FBC
:100180005F4F089590958095709561957F4F8F4F43
:100190009F4F0895A1E21A2EAA1BBB1BFD010DC0A3
:1001A000AA1FBB1FEE1FFF1FA217B307E407F50727
:1001B00020F0A21BB30BE40BF50B661F771F881F03
:1001C000991F1A9469F760957095809590959B0199
:1001D000AC01BD01CF0108950F931F93CF93DF931F
:1001E000E0913601F0913701238121FF1BC08C0182
:1001F000D0E0C0E0F80181918F01609136017091EB
:100200003701DB011896ED91FC911997882331F0A5
:100210000995892B79F3DFEFCFEFECCF8AE00995D1
:10022000892B19F08FEF9FEF02C08D2F9C2FDF914C
:0C023000CF911F910F910895F894FFCF1B
:10023C0000000002000000005300000000002041FC
:10024C004C4C554D4552204C4520464555200020E0
:10025C004554204F4E20455445494E5320544F553C
:04026C00542000001A
:00000001FF
