:100000000C9434000C943E000C9482000C943E003E
:100010000C943E000C943E000C943E000C943E0068
:100020000C943E000C943E000C943E000C943E0058
:100030000C943E000C945A000C943E000C943E002C
:100040000C943E000C943E000C943E000C943E0038
:100050000C943E000C943E000C943E000C943E0028
:100060000C943E000C943E0011241FBECFEFD8E04C
:10007000DEBFCDBF0E949B000C949E000C9400003C
:1000800084E38AB980E28BB980E88FBF1092800048
:1000900085E08093810081E080936F0086EF92EC91
:1000A000909385008093840084E08093690082E0CF
:1000B0008DBB08951F920F920FB60F9211248F934C
:1000C0009F93EF93FF938FB71FBE9BB180E189276A
:1000D0008BB986B316BA86EF92EC90938500809325
:1000E0008400EFE6F0E08081816080838FB78068D4
:1000F0008FBFFF91EF919F918F910F900FBE0F9047
:100100001F9018951F920F920FB60F9211248F9384
:100110009F938FB71FBE9BB184E289278BB98CB3A5
:100120001CBA8FB780688FBF9F918F910F900FBEC1
:100130000F901F9018950E944000FFCFF894FFCFBA
:00000001FF
