:100000000C9434000C943E000C943E000C943E0082
:100010000C943E000C943E000C943E000C943E0068
:100020000C943E000C943E000C943E000C943E0058
:100030000C943E000C943E000C943E000C943E0048
:100040000C943E000C943E000C943E000C943E0038
:100050000C943E000C943E000C943E000C943E0028
:100060000C943E000C943E0011241FBECFEFD8E04C
:10007000DEBFCDBF0E9444000C945A000C940000D7
:1000800080E284B915B8089580E284B915B820E9F2
:1000900031E02D9A80E197E2F9013197F1F701976C
:1000A000D9F72D988CE49DE1F9013197F1F701978B
:0800B000D9F7EFCFF894FFCF60
:00000001FF
