:100000000C9434000C943E000C948F000C943E0031
:100010000C943E000C943E000C943E000C943E0068
:100020000C943E000C943E000C943E000C943E0058
:100030000C943E000C945A000C943E000C943E002C
:100040000C943E000C943E000C943E000C943E0038
:100050000C943E000C943E000C943E000C943E0028
:100060000C943E000C943E0011241FBECFEFD8E04C
:10007000DEBFCDBF0E94A8000C94AB000C94000022
:1000800084E38AB980E28BB980E88FBF1092800048
:1000900085E08093810081E080936F0086EF92EC91
:1000A000909385008093840084E08093690082E0CF
:1000B0008DBB08951F920F920FB60F9211242F93AC
:1000C0003F938F939F93EF93FF938FB71FBE8BB197
:1000D00090E189278BB986B316BA86EF92EC90939C
:1000E00085008093840080E197E220E931E0F90106
:1000F0003197F1F70197D9F780916F008160809374
:100100006F008FB780688FBFFF91EF919F918F91A4
:100110003F912F910F900FBE0F901F9018951F9237
:100120000F920FB60F9211248F939F938FB71FBE1C
:100130008BB194E289278BB98CB31CBA8FB78068D6
:100140008FBF9F918F910F900FBE0F901F901895AA
:0A0150000E944000FFCFF894FFCF9B
:00000001FF
