:100000000C9434000C943E000C943E000C943E0082
:100010000C943E000C943E000C943E000C943E0068
:100020000C943E000C943E000C943E000C943E0058
:100030000C943E000C943E000C943E000C943E0048
:100040000C943E000C943E000C943E000C943E0038
:100050000C943E000C943E000C943E000C943E0028
:100060000C943E000C943E0011241FBECFEFD8E04C
:10007000DEBFCDBF0E9481000C9486000C9400006E
:1000800080E78AB91BB808955C9A2FEF84E39CE05F
:10009000215080409040E1F700C000005D9A2FEFB2
:1000A00084E39CE0215080409040E1F700C00000D4
:1000B0005E9A2FEF84E39CE0215080409040E1F76E
:1000C00000C000005C982FEF84E39CE0215080404A
:1000D0009040E1F700C000005D982FEF84E39CE0C2
:1000E000215080409040E1F700C000005E982FEF63
:1000F00084E39CE0215080409040E1F700C0000084
:1001000008950E9440000E944400FDCFF894FFCF64
:00000001FF
