:100000000C9434000C9451000C9451000C94510049
:100010000C9451000C9451000C9451000C9451001C
:100020000C9451000C9451000C9451000C9451000C
:100030000C9451000C9451000C9451000C945100FC
:100040000C9451000C9451000C9451000C945100EC
:100050000C9451000C9451000C9451000C945100DC
:100060000C9451000C94510011241FBECFEFD8E026
:10007000DEBFCDBF11E0A0E0B1E0E0E9F8E002C0F2
:1000800005900D92AC31B107D9F711E0ACE1B1E0C8
:1000900001C01D92A232B107E1F70E94A3000C94A7
:1000A00046040C94000080E78AB91BB817B881E0B9
:1000B00088B982E880937A0010927B0080E4809374
:1000C0007C00089582EC80937A0090917800809172
:1000D0007900382F20E0290F311DC90108959C01B6
:1000E00040E050E060E472E48FE090E00E942C0178
:1000F000215030402093C400232F330F330B209323
:10010000C500E1ECF0E0808188618083E2ECF0E002
:100110008081866080838EE091E090931F018093C0
:100120001E0108951F93182F8A3019F48DE00E9444
:1001300092008091C00085FFFCCF1093C60080E044
:1001400090E01F9108957F928F929F92AF92BF92FD
:10015000CF92DF92EF92FF920F931F93CF93DF9393
:100160000E94530080E895E20E946F00EE24FF2475
:10017000F2EC7F2EE0E98E2EE1E09E2E70E0A72EBD
:1001800071E0B72E64E0C62E61E0D62E1BB87092E7
:100190007A009091780080917900182F00E0F801A2
:1001A000E90FF11DEE16FF060CF47F01C70164E0B4
:1001B00070E00E9419019B016E177F070CF45C9A96
:1001C000C901880F991F8E179F070CF45D9AC9010A
:1001D000880F991F820F931F8E179F070CF45E9A4A
:1001E00084EC99E0F4013197F1F70197D9F7709217
:1001F0007A00909178008091790000D000D0EDB71E
:10020000FEB7B282A182D82FC0E09E01290F311D16
:10021000348323830E947D01EDB7FEB7D282C18271
:10022000F482E3820E947D010F900F900F900F9057
:10023000ADCF97FB092E07260AD077FD04D027D033
:1002400006D000201AF4709561957F4F0895F6F757
:10025000909581959F4F089597FB092E05260ED006
:1002600057FD04D028D00AD0001C38F45095409592
:10027000309521953F4F4F4F5F4F0895F6F790957A
:100280008095709561957F4F8F4F9F4F0895AA1B62
:10029000BB1B51E107C0AA1FBB1FA617B70710F071
:1002A000A61BB70B881F991F5A95A9F780959095A3
:1002B000BC01CD010895A1E21A2EAA1BBB1BFD01B2
:1002C0000DC0AA1FBB1FEE1FFF1FA217B307E40735
:1002D000F50720F0A21BB30BE40BF50B661F771F8D
:1002E000881F991F1A9469F760957095809590956D
:1002F0009B01AC01BD01CF010895A0E0B0E0E3E8AF
:10030000F1E00C941F04FE0135966191719180918A
:100310001E0190911F01AF010E9492012096E2E020
:100320000C943B04ABE0B0E0E8E9F1E00C940F047E
:100330003C012B015A01FC0117821682838181FD49
:1003400003C06FEF7FEFC6C19AE0892E1E010894AB
:10035000211C311CF3012381F20123FD859123FF30
:1003600081912F01882309F4B2C1853239F423FD2C
:10037000859123FF81912F01853229F490E0B3010B
:100380000E948503E7CF982FFF24EE249924FFE1F4
:10039000FF15D0F09B3269F09C3228F4903259F06E
:1003A000933291F40EC09D3249F0903369F441E0EC
:1003B00024C052E0F52A84E0F82A28C098E0F92AFF
:1003C00025C0E0E1FE2A22C0F7FC29C0892F805316
:1003D0008A3070F4F6FE05C0989C902C1124980E7B
:1003E00015C0E89CE02C1124E80EF0E2FF2A0EC0B4
:1003F0009E3229F4F6FC6BC140E4F42A07C09C3617
:1004000019F450E8F52A02C0983649F4F20123FDA8
:10041000959123FF91912F01992309F0B8CF892F4E
:100420008554833018F08052833038F444E050E033
:10043000A40EB51E5FE359830FC0933631F0933796
:1004400079F0933509F056C020C0F5018081898389
:1004500042E050E0A40EB51E610101E010E012C0C0
:10046000F501C080D180F6FC03C06FEF7FEF02C0C2
:10047000692D70E042E050E0A40EB51EC6010E9456
:100480007A038C015FE7F52214C0F501C080D180AA
:10049000F6FC03C06FEF7FEF02C0692D70E042E011
:1004A00050E0A40EB51EC6010E946F038C0150E8F7
:1004B000F52AF3FE07C01AC080E290E0B3010E9463
:1004C0008503EA948E2D90E008171907A8F30EC053
:1004D000F601F7FC8591F7FE81916F0190E0B30181
:1004E0000E948503E110EA940150104001151105A6
:1004F00079F7EAC0943611F0993669F5F7FE08C02D
:10050000F501208131814281538184E090E00AC06D
:10051000F501808191819C01442737FD4095542F3E
:1005200082E090E0A80EB91E9FE6F92257FF09C0AD
:1005300050954095309521953F4F4F4F5F4FE0E8E4
:10054000FE2ACA01B901A1012AE030E00E94B103EC
:10055000D82ED21840C0953729F41F2D1F7E2AE0CF
:1005600030E01DC01F2D197F9F3661F0903720F4B9
:10057000983509F0ACC00FC0903739F0983709F0C2
:10058000A6C004C028E030E00AC0106114FD146069
:1005900020E130E004C014FD166020E132E017FFD6
:1005A00008C0F501608171818281938144E050E04F
:1005B00008C0F50180819181BC0180E090E042E0BB
:1005C00050E0A40EB51EA1010E94B103D82ED2188E
:1005D0008FE7F82EF122F6FE0BC05EEFF522D9145C
:1005E00038F4F4FE07C0F2FC05C08FEEF82202C01A
:1005F0001D2D01C0192DF4FE0DC0FE01ED0DF11DE4
:100600008081803319F499EEF92208C01F5FF2FE51
:1006100005C003C08F2D867809F01F5F0F2DF3FCF6
:1006200014C0F0FE0FC01E1510F09D2C0BC09D2CA9
:100630009E0C911A1E2D06C080E290E0B3010E942C
:1006400085031F5F1E15C0F304C01E1510F4E11AC8
:1006500001C0EE2404FF0FC080E390E0B3010E94CC
:10066000850302FF1DC001FD03C088E790E00EC0B6
:1006700088E590E00BC0802F867891F001FF02C0E2
:100680008BE201C080E2F7FC8DE290E0B3010E94B2
:10069000850306C080E390E0B3010E9485039A942D
:1006A000D914C0F3DA94F101ED0DF11D808190E0D1
:1006B000B3010E948503DD20A9F706C080E290E027
:1006C000B3010E948503EA94EE20C1F743CEF30103
:1006D00066817781CB012B96E2E10C942B04FC011F
:1006E0000590615070400110D8F7809590958E0F5D
:1006F0009F1F0895FC016150704001900110D8F7D0
:10070000809590958E0F9F1F08950F931F93CF9301
:10071000DF938C01EB018B8181FF1BC082FF0DC039
:100720002E813F818C819D812817390764F4E881EF
:10073000F9810193F983E88306C0E885F985802F64
:100740000995892B31F48E819F8101969F838E8339
:1007500002C00FEF1FEFC801DF91CF911F910F91E2
:100760000895FA01AA27283051F1203181F1E89447
:100770006F936E7F6E5F7F4F8F4F9F4FAF4FB1E094
:100780003ED0B4E03CD0670F781F891F9A1FA11D8F
:10079000680F791F8A1F911DA11D6A0F711D811D90
:1007A000911DA11D20D009F468943F912AE0269F55
:1007B00011243019305D3193DEF6CF010895462FB4
:1007C0004770405D4193B3E00FD0C9F7F6CF462F95
:1007D0004F70405D4A3318F0495D31FD40524193FE
:1007E00002D0A9F7EACFB4E0A695979587957795BB
:1007F0006795BA95C9F700976105710508959B0142
:10080000AC010A2E06945795479537952795BA95CA
:10081000C9F7620F731F841F951FA01D08952F92A3
:100820003F924F925F926F927F928F929F92AF9280
:10083000BF92CF92DF92EF92FF920F931F93CF93CD
:10084000DF93CDB7DEB7CA1BDB0B0FB6F894DEBF64
:100850000FBECDBF09942A88398848885F846E848A
:100860007D848C849B84AA84B984C884DF80EE80D4
:10087000FD800C811B81AA81B981CE0FD11D0FB6DD
:10088000F894DEBF0FBECDBFED010895F894FFCF01
:1008900025640A004D4158203A2025640A000000D2
:0C08A000000200000000920000000000B8
:00000001FF
