:100000000C9434000C943E000C943E000C943E0082
:100010000C943E000C943E000C943E000C943E0068
:100020000C943E000C943E000C943E000C943E0058
:100030000C943E000C943E000C943E000C943E0048
:100040000C943E000C943E000C943E000C943E0038
:100050000C943E000C943E000C943E000C943E0028
:100060000C943E000C943E0011241FBECFEFD8E04C
:10007000DEBFCDBF0E9481000C9487000C9400006D
:1000800080E78AB91BB808955C9A84EC99E020E96E
:1000900031E0F9013197F1F70197D9F75D9A84ECD6
:1000A00099E020E931E0F9013197F1F70197D9F7AB
:1000B0005E9A84EC99E020E931E0F9013197F1F79B
:1000C0000197D9F75C9884EC99E020E931E0F901D7
:1000D0003197F1F70197D9F75D9884EC99E020E921
:1000E00031E0F9013197F1F70197D9F75E9884EC87
:1000F00099E020E931E0F9013197F1F70197D9F75B
:10010000089580E78AB91BB80E944400FDCFF89497
:02011000FFCF1F
:00000001FF
