:100000000C9434000C9446000C9446000C9446006A
:100010000C9446000C9446000C9446000C94460048
:100020000C9446000C9446000C9446000C94460038
:100030000C9446000C945C000C9446000C94460012
:100040000C9446000C9446000C9446000C94460018
:100050000C9446000C9446000C9446000C94460008
:100060000C9446000C94460011241FBECFEFD8E03C
:10007000DEBFCDBF11E0A0E0B1E001C01D92A23013
:10008000B107E1F70E9493000C9496000C940000D5
:1000900080E18AB91BB880E88FBF1092800085E0AC
:1000A0008093810081E080936F0086EF92EC9093C3
:1000B00085008093840008951F920F920FB60F92CF
:1000C00011242F933F938F939F938FB71FBE8BB1B4
:1000D00094E089278BB986B316BA2091000130913C
:1000E000010120FD03C086EF92EC02C080E69AEE8B
:1000F00090938500809384002F5F3F4F30930101E0
:100100002093000180916F00816080936F008FB712
:1001100080688FBF9F918F913F912F910F900FBE5D
:100120000F901F9018950E944800FFCFF894FFCFC2
:00000001FF
